{
  "abi": [
    {
      "inputs": [],
      "name": "HereIsMyNumber",
      "outputs": [],
      "stateMutability": "nonpayable",
      "type": "function"
    },
    {
      "stateMutability": "payable",
      "type": "receive"
    }
  ],
  "bytecode": {
    "object": "0x608060405234801561001057600080fd5b5060fa8061001f6000396000f3fe60806040526004361060205760003560e01c80637a48780d14602b57600080fd5b36602657005b600080fd5b348015603657600080fd5b50603d603f565b005b33803b9063ffffffff821615605357600080fd5b32331415605f57600080fd5b60673347606b565b5050565b600080600080600085875af190508060bf5760405162461bcd60e51b815260206004820152601360248201527211551217d514905394d1915497d19052531151606a1b604482015260640160405180910390fd5b50505056fea26469706673582212204b35a1176d1bfbd9a85bc75cb7b07d6ee0c28052453ec2ac39588abff452c8fd64736f6c634300080a0033",
    "linkReferences": {}
  }
}