{
  "abi": [
    {
      "inputs": [
        {
          "internalType": "uint256",
          "name": "",
          "type": "uint256"
        }
      ],
      "name": "games",
      "outputs": [
        {
          "internalType": "address",
          "name": "player",
          "type": "address"
        },
        {
          "internalType": "uint256",
          "name": "id",
          "type": "uint256"
        },
        {
          "internalType": "uint256",
          "name": "bet",
          "type": "uint256"
        },
        {
          "internalType": "uint256",
          "name": "blockNumber",
          "type": "uint256"
        }
      ],
      "stateMutability": "view",
      "type": "function"
    },
    {
      "inputs": [
        {
          "internalType": "uint256",
          "name": "_bet",
          "type": "uint256"
        }
      ],
      "name": "spin",
      "outputs": [],
      "stateMutability": "payable",
      "type": "function"
    }
  ],
  "bytecode": {
    "object": "0x608060405234801561001057600080fd5b50610365806100206000396000f3fe6080604052600436106100295760003560e01c8063117a5b901461002e578063a5b6ea8f1461007c575b600080fd5b34801561003a57600080fd5b5061004e6100493660046102db565b610091565b604080516001600160a01b039095168552602085019390935291830152606082015260800160405180910390f35b61008f61008a3660046102db565b6100d5565b005b600081815481106100a157600080fd5b600091825260209091206004909102018054600182015460028301546003909301546001600160a01b039092169350919084565b662386f26fc100003410156101255760405162461bcd60e51b8152602060048201526011602482015270092dce6eaccccd2c6d2cadce840488aa89607b1b60448201526064015b60405180910390fd5b60008054908190816101356102f4565b906000526020600020906004020160010181905550336000828154811061015e5761015e6102f4565b906000526020600020906004020160000160006101000a8154816001600160a01b0302191690836001600160a01b0316021790555081600082815481106101a7576101a76102f4565b90600052602060002090600402016002018190555043600082815481106101d0576101d06102f4565b600091825260209091206003600490920201015580156102815760006101f760018361030a565b9050600061021a60008381548110610211576102116102f4565b50600090815290565b90506000828154811061022f5761022f6102f4565b90600052602060002090600402016002015481141561027e5761027e6000838154811061025e5761025e6102f4565b60009182526020909120600490910201546001600160a01b031647610285565b50505b5050565b600080600080600085875af19050806102d65760405162461bcd60e51b815260206004820152601360248201527211551217d514905394d1915497d19052531151606a1b604482015260640161011c565b505050565b6000602082840312156102ed57600080fd5b5035919050565b634e487b7160e01b600052603260045260246000fd5b60008282101561032a57634e487b7160e01b600052601160045260246000fd5b50039056fea2646970667358221220d33df818d0993afccadb8020d6e3a91b7373c25971545458e64b2fa2f6738ec364736f6c634300080a0033",
    "linkReferences": {}
  }
}