{
  "abi": [
    {
      "inputs": [],
      "stateMutability": "nonpayable",
      "type": "constructor"
    },
    {
      "inputs": [],
      "name": "WrongNumber",
      "type": "error"
    },
    {
      "inputs": [
        {
          "internalType": "uint256",
          "name": "bet",
          "type": "uint256"
        }
      ],
      "name": "spin",
      "outputs": [],
      "stateMutability": "payable",
      "type": "function"
    },
    {
      "stateMutability": "payable",
      "type": "receive"
    }
  ],
  "bytecode": {
    "object": "0x60806040526001600055602a60015534801561001a57600080fd5b5061002661010061002e565b600055610124565b6000808261005d7f028f5c28f5c28f5c28f5c28f5c28f5c28f5c28f5c28f5c28f5c28f5c28f5c28f60646100b0565b61006791906100e5565b9050600080544361007891906100f9565b905080408461008784836100e5565b6100919190610110565b95945050505050565b634e487b7160e01b600052601160045260246000fd5b60008160001904831182151516156100ca576100ca61009a565b500290565b634e487b7160e01b600052601260045260246000fd5b6000826100f4576100f46100cf565b500490565b60008282101561010b5761010b61009a565b500390565b60008261011f5761011f6100cf565b500690565b6102b1806101336000396000f3fe6080604052600436106100225760003560e01c8063a5b6ea8f1461002e57600080fd5b3661002957005b600080fd5b61004161003c3660046101d8565b610043565b005b662386f26fc100003410156100935760405162461bcd60e51b8152602060048201526011602482015270092dce6eaccccd2c6d2cadce840488aa89607b1b60448201526064015b60405180910390fd5b600061009f6064610116565b90506100ac610100610116565b6000558082146100e75760405162461bcd60e51b815260206004820152600660248201526557726f6e672160d01b604482015260640161008a565b818114156100fd576100f93347610182565b5050565b604051631aa3503f60e11b815260040160405180910390fd5b600080826101457f028f5c28f5c28f5c28f5c28f5c28f5c28f5c28f5c28f5c28f5c28f5c28f5c28f6064610207565b61014f919061023c565b905060008054436101609190610250565b905080408461016f848361023c565b6101799190610267565b95945050505050565b600080600080600085875af19050806101d35760405162461bcd60e51b815260206004820152601360248201527211551217d514905394d1915497d19052531151606a1b604482015260640161008a565b505050565b6000602082840312156101ea57600080fd5b5035919050565b634e487b7160e01b600052601160045260246000fd5b6000816000190483118215151615610221576102216101f1565b500290565b634e487b7160e01b600052601260045260246000fd5b60008261024b5761024b610226565b500490565b600082821015610262576102626101f1565b500390565b60008261027657610276610226565b50069056fea264697066735822122054a02a202255129bfbe411cd334c6fbd64ccab83098f0d95f0db4b05f346585964736f6c634300080a0033",
    "linkReferences": {}
  }
}