{
  "abi": [
    {
      "inputs": [
        {
          "internalType": "uint256",
          "name": "bet",
          "type": "uint256"
        }
      ],
      "name": "spin",
      "outputs": [],
      "stateMutability": "payable",
      "type": "function"
    },
    {
      "stateMutability": "payable",
      "type": "receive"
    }
  ],
  "bytecode": {
    "object": "0x608060405234801561001057600080fd5b50610250806100206000396000f3fe6080604052600436106100225760003560e01c8063a5b6ea8f1461002e57600080fd5b3661002957005b600080fd5b61004161003c366004610177565b610043565b005b662386f26fc100003410156100935760405162461bcd60e51b8152602060048201526011602482015270092dce6eaccccd2c6d2cadce840488aa89607b1b60448201526064015b60405180910390fd5b600061009f60646100b7565b9050818114156100b3576100b33347610121565b5050565b600080826100e67f028f5c28f5c28f5c28f5c28f5c28f5c28f5c28f5c28f5c28f5c28f5c28f5c28f60646101a6565b6100f091906101db565b905060006100ff6001436101ef565b905080408461010e84836101db565b6101189190610206565b95945050505050565b600080600080600085875af19050806101725760405162461bcd60e51b815260206004820152601360248201527211551217d514905394d1915497d19052531151606a1b604482015260640161008a565b505050565b60006020828403121561018957600080fd5b5035919050565b634e487b7160e01b600052601160045260246000fd5b60008160001904831182151516156101c0576101c0610190565b500290565b634e487b7160e01b600052601260045260246000fd5b6000826101ea576101ea6101c5565b500490565b60008282101561020157610201610190565b500390565b600082610215576102156101c5565b50069056fea2646970667358221220ef02ec14f4b5ed47329bd390ab1b0498e8648672b970fe5357a32a164429b54d64736f6c634300080a0033",
    "linkReferences": {}
  }
}